:100000000C94B1000C94CE000C94CE000C94CE0055
:100010000C94CE000C94CE000C94CE000C94CE0028
:100020000C94CE000C94CE000C94CE000C94CE0018
:100030000C94CE000C94CE000C94CE000C94CE0008
:100040000C94CE000C94CE000C94CE000C94CE00F8
:100050000C94CE000C94CE000C94CE000C94CE00E8
:100060000C94CE000C94CE0000407A10F35A00A0FD
:10007000724E18090010A5D4E80000E87648170071
:1000800000E40B54020000CA9A3B000000E1F505B1
:10009000000080969800000040420F000000A086FB
:1000A00001000000102700000000E803000000002D
:1000B0006400000000000A000000000001000000D1
:1000C00000002C76D888DC674F0823DFC1DFAE59EB
:1000D000E1B1B796E5E3E453C63AE651997696E87E
:1000E000E6C28426EB898C9B62ED407C6FFCEFBC02
:1000F0009C9F40F2BAA56FA5F490055A2AF75C932D
:100100006B6CF9676DC11BFCE0E40D47FEF520E662
:10011000B500D0ED902E0300943577050080841E45
:10012000080000204E0A000000C80C333333330FA0
:10013000986E12831141EF8D2114893BE65516CF3D
:10014000FEE6DB18D1844B381BF77C1D901DA4BB49
:10015000E424203284725E228100C9F124ECA1E5FE
:100160003D2711241FBECFEFD8E0DEBFCDBF14E086
:10017000A0E0B1E0E8E5F2E102C005900D92A83FF1
:10018000B107D9F724E0A8EFB4E001C01D92AB3F5E
:10019000B207E1F70E946F030C942A090C94000047
:1001A000ECE7F0E080EC80838081808387E88093B7
:1001B0007A00089580917A00806480937A0080911B
:1001C0007A0084FFFCCF80917800909179000895A7
:1001D00088E08093C10086E08093C20087E6809328
:1001E000C40008959091C00095FFFCCF8093C60095
:1001F00008951F93CF93DF93EC0110E0812F90E0DF
:10020000FE0101900020E9F73197EC1BFD0B8E17E2
:100210009F0720F0DF91CF911F9108958C0F9D1FB4
:10022000FC0180810E94F2001F5FE8CFCF93C82FAE
:1002300080E00E94DE028C2FCF910C94F4020C948B
:1002400065030C942403CF93C82F8CE30E941601FE
:1002500080E00E9424038C2F0E942403CF910C94F1
:100260006503CF93DF9381E20E94230180E00E9427
:1002700023018FE70E94230182E20E94230180E094
:100280000E94230187E00E9423018CE30E94160153
:1002900080E40E942403C0E0D4E080E00E942403B4
:1002A0002197D9F781E20E94230180E00E94230177
:1002B0008FE70E94230182E20E94230180E00E94D6
:1002C000230187E00E9423018CE30E94160180E451
:1002D000DF91CF910C9424030E94D5028EEA0E94F4
:1002E000230185ED0E94230180E80E94230188EA12
:1002F0000E9423018FE30E94230183ED0E942301CA
:1003000080E00E94230180E40E9423018DE80E9486
:10031000230184E10E94230180E20E94230180E006
:100320000E94230181EA0E94230188EC0E9423019C
:100330008AED0E94230182E10E94230181E80E944C
:1003400023018FEC0E94230189ED0E94230181EF9C
:100350000E9423018BED0E94230180E40E9423016F
:1003600084EA0E94230186EA0E9423018FEA0E9408
:1003700023010C943101CF93DF93C82FD62F8830FF
:1003800000F567FD1EC08093F9046093FA0481E2D2
:100390000E9423018D2F0E9423018FE70E942301D9
:1003A00082E20E9423018C2F0E94230187E00E9499
:1003B00023018CE30E94160180E4DF91CF910C941D
:1003C0002403DF91CF910895883028F48093F904B5
:1003D00060E00C94BB0108958091F9048F5F8770F1
:1003E0008093F90460E00C94BB011F93CF93DF93DB
:1003F000C82F8091FA048637F0F4CA30E1F0C05279
:100400008AE0C89FE0011124C050DF4F10E08991BD
:100410000E9424038091FA048F5F8093FA041F5F87
:100420001A30A9F780E00E9424038091FA048F5FBC
:100430008093FA0404C00E94EC01CA3001F7DF91F6
:10044000CF911F910895CF93DF93EC018991811192
:1004500003C0DF91CF9108950E94F501F7CF2F924D
:100460003F924F925F926F927F928F929F92AF9244
:10047000BF92CF92DF92EF92FF920F931F93CF9391
:10048000DF93CDB7DEB72A970FB6F894DEBF0FBE65
:10049000CDBF782E4A015B01122F82E078123AC05C
:1004A000022F10E0EE24E394F12C01501109C8F45E
:1004B0002A960FB6F894DEBF0FBECDBFDF91CF9165
:1004C0001F910F91FF90EF90DF90CF90BF90AF9072
:1004D0009F908F907F906F905F904F903F902F9064
:1004E0000895A701002E02C0440F551F0A94E2F799
:1004F000052E000C660B770B482159216A217B21C0
:1005000081E0452B462B472B09F480E0805D0E945B
:10051000F501CBCF81149104A104B10429F1FE01AE
:1005200031967F016F0100E0272C312C512C412C9A
:1005300001131CC00E0D1F2D111D0E151F0509F4F2
:10054000B7CFF80182918F018A3068F1895C0E94EF
:10055000F501F3CF80E30E94F5010F5F011709F465
:10056000A7CF0A30B9F7A4CF00E0F8CF81149104E7
:10057000A104B10499F0682CC501B401A201910154
:100580000E94610449015A01729E60181124F6010B
:1005900060820F5FFFEFCF1ADF0ACACF1B3050F621
:1005A000F6011082F6CF805DD2CFE9EBF0E08081DA
:1005B0008C7F808383E18093B80008958093F80452
:1005C0008091BC00846A8093BC008091BC0087FF4E
:1005D000FCCF8091B900887F883011F0803111F410
:1005E0008FEF08958EEF0895880F9091F804892B6E
:1005F0008093BB008091BC008F7D8093BC00809174
:10060000BC0080688093BC008091BC0087FFFCCF59
:100610008091F804811107C08091B900887F8831EA
:1006200079F08EEF0895813069F4E091B900E87FA8
:10063000E853E131B0F7F0E0E953FB4F80810895D2
:100640008FEF089580E008958093BB008091BC00F7
:1006500080688093BC008091BC0087FFFCCFE09154
:10066000B900E87FE852E13128F4F0E0EA54FB4FAA
:10067000808108958EEF089583E3815011F48CEF0B
:1006800008959091BC0097FFF8CF8DEF08958111E8
:1006900015C08091BC0080648093BC008091BC0038
:1006A00080688093BC000E943C038091B900887FE1
:1006B000803541F0883531F08EEF08958091BC008F
:1006C0008F7BEACF8091BB0008958091BC00806948
:1006D0008093BC008091BC0084FFFCCF0895CDB70F
:1006E000DEB760970FB6F894DEBF0FBECDBF0E9495
:1006F000E8000E94D0000E946C0117B880E28BB91C
:1007000088E08AB90E94DA009C0150E040E02D8721
:100710003E874F87588BCA01B9010E94620529E6BE
:1007200032EA49E85FE36D877E878F87988B6D8516
:100730007E858F8598890E94F50520E030E04AEF9C
:1007400053E46D877E878F87988B6D857E858F8537
:1007500098890E94830420E030E040E251E46D87F4
:100760007E878F87988B6D857E858F8598890E947F
:10077000F0044B015C0126E636E646EE5FE36D874A
:100780009E868F87B88A6D857E858F8598890E9421
:10079000F50520E030E040E052E46D877E878F87EA
:1007A000988B6D857E858F8598890E9484046B0166
:1007B0007C018E01095F1F4F21E044E06D87DE86DA
:1007C0008F87F88A6D857E858F8598890E94860639
:1007D0000650110921E044E08D869E86AF86B88AD6
:1007E0006D857E858F8598890E94860688ED94E0C8
:1007F0004D993BC00E94F900C8010E94F90087EEA4
:1008000094E00E94F9008DE00E94F2008AE00E94CC
:10081000F20081E00E94E40189EE94E00E9423024C
:1008200083E00E94E401C8010E94230287EE94E065
:100830000E9423023FEF43ED50E3315040405040CF
:10084000E1F700C0000020E030E040EA52E4CD864D
:10085000DE86EF86F88A6D857E858F8598890E9471
:10086000F005181664F55B9A4DCF0E94F900CE0191
:1008700007960E94F90085EF94E00E94F9008DE050
:100880000E94F2008AE00E94F20081E00E94E401EE
:1008900089EE94E00E94230283E00E94E401CE01ED
:1008A00007960E94230285EF94E00E9423028FEFB7
:1008B00093ED20E3815090402040E1F7C2CF5B9858
:1008C00021CFA1E21A2EAA1BBB1BFD010DC0AA1F3E
:1008D000BB1FEE1FFF1FA217B307E407F50720F0A9
:1008E000A21BB30BE40BF50B661F771F881F991F24
:1008F0001A9469F760957095809590959B01AC016D
:10090000BD01CF0108955058BB27AA270E949B0420
:100910000C94B6050E94A80538F00E94AF0520F09F
:1009200039F49F3F19F426F40C94A5050EF4E095D4
:10093000E7FB0C949F05E92F0E94C70558F3BA17EF
:10094000620773078407950720F079F4A6F50C94E5
:10095000E9050EF4E0950B2EBA2FA02D0B01B9017D
:1009600090010C01CA01A0011124FF27591B99F025
:10097000593F50F4503E68F11A16F040A22F232F31
:10098000342F4427585FF3CF469537952795A79581
:10099000F0405395C9F77EF41F16BA0B620B730B28
:1009A000840BBAF09150A1F0FF0FBB1F661F771F99
:1009B000881FC2F70EC0BA0F621F731F841F48F44E
:1009C000879577956795B795F7959E3F08F0B0CFD7
:1009D0009395880F08F09927EE0F979587950895BE
:1009E0000E9404050C94B6050E94AF0558F00E94C1
:1009F000A80540F029F45F3F29F00C949F055111A0
:100A00000C94EA050C94A5050E94C70568F3992388
:100A1000B1F3552391F3951B550BBB27AA276217FA
:100A20007307840738F09F5F5F4F220F331F441F07
:100A3000AA1FA9F335D00E2E3AF0E0E832D091503B
:100A40005040E695001CCAF72BD0FE2F29D0660F28
:100A5000771F881FBB1F261737074807AB07B0E86B
:100A600009F0BB0B802DBF01FF2793585F4F3AF071
:100A70009E3F510578F00C949F050C94EA055F3F6A
:100A8000E4F3983ED4F3869577956795B795F795F7
:100A90009F5FC9F7880F911D9695879597F90895DF
:100AA000E1E0660F771F881FBB1F6217730784077B
:100AB000BA0720F0621B730B840BBA0BEE1F88F78A
:100AC000E0950895E89409C097FB3EF490958095D1
:100AD000709561957F4F8F4F9F4F9923A9F0F92F04
:100AE00096E9BB279395F695879577956795B79582
:100AF000F111F8CFFAF4BB0F11F460FF1BC06F5F68
:100B00007F4F8F4F9F4F16C0882311F096E911C079
:100B1000772321F09EE8872F762F05C0662371F09A
:100B200096E8862F70E060E02AF09A95660F771FAE
:100B3000881FDAF7880F9695879597F9089597F9A2
:100B40009F6780E870E060E008959FEF80EC089573
:100B500000240A941616170618060906089500249C
:100B60000A9412161306140605060895092E039416
:100B7000000C11F4882352F0BB0F40F4BF2B11F48A
:100B800060FF04C06F5F7F4F8F4F9F4F089557FDE9
:100B90009058440F551F59F05F3F71F04795880FEB
:100BA00097FB991F61F09F3F79F087950895121682
:100BB00013061406551FF2CF4695F1DF08C016162E
:100BC00017061806991FF1CF8695710561050894DF
:100BD0000895E894BB2766277727CB0197F90895F6
:100BE0000E94620608F48FEF08950E9408060C9494
:100BF000B6050E94A80538F00E94AF0520F09523A5
:100C000011F00C949F050C94A50511240C94EA0591
:100C10000E94C70570F3959FC1F3950F50E0551FD3
:100C2000629FF001729FBB27F00DB11D639FAA2741
:100C3000F00DB11DAA1F649F6627B00DA11D661F90
:100C4000829F2227B00DA11D621F739FB00DA11DB1
:100C5000621F839FA00D611D221F749F3327A00D6B
:100C6000611D231F849F600D211D822F762F6A2F07
:100C700011249F5750409AF0F1F088234AF0EE0F6C
:100C8000FF1FBB1F661F771F881F91505040A9F799
:100C90009E3F510580F00C949F050C94EA055F3F40
:100CA000E4F3983ED4F3869577956795B795F795D5
:100CB000E7959F5FC1F7FE2B880F911D969587954D
:100CC00097F90895990F0008550FAA0BE0E8FEEF79
:100CD00016161706E807F907C0F012161306E40700
:100CE000F50798F0621B730B840B950B39F40A26F9
:100CF00061F0232B242B252B21F408950A2609F4D7
:100D0000A140A6958FEF811D811D0895EF920F934D
:100D10001F93CF93DF9300D000D00F92CDB7DEB7F3
:100D2000322F0D8354E047FD54E1242F27FD2195F8
:100D3000E52E032F4D81512F69837A838B839C830A
:100D400069817A818B819C810E94B3068D81912F6C
:100D50000F900F900F900F900F90DF91CF911F91F8
:100D60000F91EF9008956F927F929F92AF92BF92F2
:100D7000CF92DF92EF92FF920F931F93CF93DF9367
:100D8000CDB7DEB72D970FB6F894DEBF0FBECDBF3F
:100D90006A01122FB02EFBE36F2E601608F40BE3EE
:100DA000FF24F394F00E0F2D27E0AE014F5F5F4F4D
:100DB0006A877B878C879D876A857B858C859D85E7
:100DC0000E945208AC01A9808A2D89703DE28130D1
:100DD00039F03BE2E1FC04C03E2D3170E0FC30E232
:100DE0000E2D0071EA2DE870A3FE59C083E0311189
:100DF00084E08117A8F5181B002309F43FC03323B2
:100E000019F0F60131936F01F6013396E2FE3BC013
:100E10008EE4D6018C9391E411969C9311971296CF
:100E20008C93812F9E2F2F2F30E2811131C0E10F43
:100E3000F11D10828EEF9FEF2D960FB6F894DEBF56
:100E40000FBECDBFDF91CF911F910F91FF90EF901B
:100E5000DF90CF90BF90AF909F907F906F9008955C
:100E600010E0CACFE92FF22F419381509E2F2F2FF0
:100E70008111F8CFC10ED11C10E0C1CF812F9C2D64
:100E80002D2D40E2F5CF8EE6D6018C9391E6C4CFAE
:100E9000A92FB22F3D9381509A2F2B2FC6CF2A2DE9
:100EA0002470A2FE47C083E0311184E0811710F462
:100EB000E12FE81B002349F1332319F0D6013D93BC
:100EC0006D01C6010396E2FE25C029E4D6012C93EC
:100ED0002EE411962C93119726E412962C932E2F24
:100EE000382F492F50E221111EC0E80FF92FF11DB4
:100EF000A0CFA92FB22F4D9381509A2F2B2F811164
:100F0000F8CFCE0ED11CE0E0D7CF8E2F9C2D2D2D0B
:100F100040E2F5CF29E6D6012C932EE611962C93CC
:100F2000119726E6DACFA32FB42F5D9321503A2FE5
:100F30004B2FD9CFBA0157FF02C070E060E0E1E06B
:100F4000F0E0311102C0F0E0E0E0CB010196E80FE3
:100F5000F91F8B2D90E0DC011196B11002C0B0E0BA
:100F6000A0E0EA0FFB1F1E171F0619F014F0212F37
:100F70002E1B011194C0D601E22FF0E2E3FE51C016
:100F8000332329F0F60131936F01011108C0F601F6
:100F9000322FA0E331114BC0C20ED11C20E00F2D27
:100FA000040F3A81FA2DF071BF2EA4FE03C0313335
:100FB00009F401501016F4F5093008F008E0DB01DF
:100FC0007A01E01AF10800271127081B190BEEE23D
:100FD0009E2E4A175B0784F1EA16FB066CF5FA01B0
:100FE000EA1BFB0B66246394712C6C0E7D1EE60DD0
:100FF000F71DA18011973601EFEF6E1A7E0AA01738
:10100000B107ECF0F601A082AF3FBA0731F4360128
:10101000E2E06E0E711CF60191826301DACFFD935E
:10102000E150E111FCCFC20ED11C20E0A9CFA19369
:101030003150B0CF01E0C3CFE0E3AE2EDBCF8095DF
:101040009095861797070CF5861B970B01966150B4
:101050007109860F971F4817590741F4363320F45A
:10106000353321F4B11002C081E3A82ED601AC9231
:10107000822F962D372D40E281110AC0F301E20F35
:10108000F11D108290E080E0D7CE90E080E0DFCFCD
:10109000A92FB32F4D9381509A2F3B2FEDCF3111B4
:1010A00071CF7DCF283008F027E03327DA01990F80
:1010B000311D87FD916000966105710539F432603C
:1010C0002E5F3D9330E32A95E1F708959F3F30F07E
:1010D00080387105610509F03C5F3C5F3D939130BC
:1010E00008F08068911DDF93CF931F930F93FF92B9
:1010F000EF92192F987F9695E92F96959695E90F7F
:10110000FF27EE53FF4F99273327EE24FF24A70133
:10111000E70105900894079428F4360FE71EF81E9F
:10112000491F511D660F771F881F991F0694A1F74D
:101130000590079428F4E70EF81E491F561FC11D9D
:10114000770F881F991F661F0694A1F705900794D3
:1011500028F4F80E491F561FC71FD11D880F991F6D
:10116000661F771F0694A1F70590079420F4490F96
:10117000561FC71FD81F990F661F771F881F069419
:10118000A9F784911095177041F0D695C79557959A
:101190004795F794E7941A95C1F7E8E6F0E068946C
:1011A0001590159135916591959105907FE2739514
:1011B000E118F10A430B560BC90BD009C0F7E10C3B
:1011C000F11E431F561FC91FD01D7EF4703311F44A
:1011D0008A95E6CFE894015030F0080F0AF4002712
:1011E000021708F4202F2395022F7A3328F079E391
:1011F0007D932A95E9F710C07D932A9589F6069488
:1012000097956795379517951794E118F10A430B51
:10121000560BC90BD00998F023957E9173957A33BC
:1012200008F070E37C932013B8F77E9170617D9392
:1012300030F0839571E37D9370E32A95E1F71124F3
:10124000EF90FF900F911F91CF91DF91992787FD2C
:0812500090950895F894FFCF7A
:101258000000000000000000000000002F00000057
:101268000000000000070007000000000000147FD5
:10127800147F140000000000242A7F2A12000000B6
:10128800000023130864620000000000364955225C
:1012980050000000000000050300000000000000EE
:1012A800001C22410000000000000041221C000038
:1012B8000000000014083E081400000000000808A0
:1012C8003E080800000000000000A06000000000C8
:1012D800000008080808080000000000006060001E
:1012E80000000000000020100804020000000000B8
:1012F8003E5149453E000000000000427F4000008A
:1013080000000000426151494600000000002141F0
:10131800454B3100000000001814127F1000000037
:101328000000274545453900000000003C4A49496E
:1013380030000000000001710905030000000000F2
:1013480036494949360000000000064949291E006F
:1013580000000000003636000000000000000056C3
:1013680036000000000000000814224100000000C0
:10137800000014141414140000000000004122148A
:1013880008000000000002015109060000000000EA
:10139800324959513E00000000007C1211127C00B5
:1013A800000000007F4949493600000000003E4126
:1013B80041412200000000007F4141221C00000042
:1013C80000007F4949494100000000007F090909E0
:1013D8000100000000003E4149497A000000000079
:1013E8007F0808087F000000000000417F410000DE
:1013F800000000002040413F0100000000007F087D
:1014080014224100000000007F40404040000000DE
:1014180000007F020C027F00000000007F0408101B
:101428007F00000000003E4141413E0000000000F6
:101438007F0909090600000000003E4151215E00B5
:10144800000000007F0919294600000000004649F5
:10145800494931000000000001017F01010000003E
:1014680000003F4040403F00000000001F20402097
:101478001F00000000003F4038403F00000000000F
:1014880063140814630000000000070870080700D0
:101498000000000061514945430000000000007F42
:1014A800414100000000000055AA55AA550000005F
:1014B80000000041417F000000000000040201021A
:1014C80004000000000040404040400000000000D0
:1014D8000003050000000000000020545454780068
:1014E800000000007F4844443800000000003844F1
:1014F8004444200000000000384444487F000000B5
:10150800000038545454180000000000087E0901F7
:1015180002000000000018A4A4A47C000000000041
:101528007F08040478000000000000447D400000AB
:10153800000000004080847D0000000000007F1053
:10154800284400000000000000417F400000000027
:1015580000007C0418047800000000007C080404E3
:1015680078000000000038444444380000000000BF
:10157800FC24242418000000000018242418FC006F
:10158800000000007C080404080000000000485423
:101598005454200000000000043F44402000000094
:1015A80000003C4040207C00000000001C2040203F
:1015B8001C00000000003C4030403C0000000000DF
:1015C800442810284400000000001CA0A0A07C00B3
:1015D800000000004464544C440000000000001067
:1015E8007C820000000000000000FF0000000000F6
:1015F800000000827C1000000000000000060909BD
:10160800060000000000FFFEFEFEFEFEFEFEFEFEDF
:10161800FEFEFEFEFEFEFEFEFEFEFEFEFEFEFEFFE1
:10162800FEFEFEFEFEFEFEFE54656D706572617480
:101638007572653A202000430054656D70657261CB
:08164800747572650046000094
:00000001FF
